:040000000DEF00F010
:0400080054EF83F03E
:06001800FF0040EF84F040
:10FE3C0000AE1001000000240301000000000000CF
:10FE4C000000000000004A0F01000000000000004C
:10FE5C000000000000000000000000760F019A1165
:10FE6C0001AC1101000000141101000000260C016E
:10FE7C00000000A01101000000221101000000028E
:10FE8C00C000FF0002C000FF0002400000004469F7
:10FE9C007361626C656400003820626974730000E1
:10FEAC0000003136206269747300000053544154D1
:10FEBC0055530909203D203078253032782052588E
:10FECC005F44523D25782054585F44533D2578209B
:10FEDC004D41585F52543D25782052585F505F4E2B
:10FEEC004F3D25782054585F46554C4C3D25780D98
:10FEFC000A003D3D3D3D3D3D3D3D3D3D3D3D3D3D96
:10FF0C003D3D204E524620436F6E666967757261A7
:10FF1C0074696F6E203D3D3D3D3D3D3D3D3D3D3D5C
:10FF2C003D3D3D3D3D0A0052657472616E736D69D5
:10FF3C007409203D2025642075730A004352432028
:10FF4C004C656E67746809203D2025730A00446176
:10FF5C007461205261746509203D2025730A00509C
:10FF6C004120506F77657209203D2025730A0044AB
:10FF7C00594E50442F464541545552450052585FF6
:10FF8C00414444525F50302D310052585F4144443B
:10FF9C00525F50322D350052585F50575F50302D04
:10FFAC003600454E5F5258414444520054585F410C
:10FFBC00444452090052465F534554555000434F38
:10FFCC004E46494709002030782530327800454E9E
:10FFDC005F4141090052465F434809004255545461
:10FFEC004F4E00257309203D0032524543560020E8
:04FFFC003078000059
:020000040001F9
:10000000C20E0D6E050E0E6E79EC87F0C20E196EE3
:10001000050E1A6E700E1B6E200E1C6EC9EC84F05D
:10002000C20E166E050E176EF50E186EFF0E196EC7
:10003000F3EC83F016501710D8A421EF80F023EFD3
:1000400080F010EF80F0C20E166E050E176EF50EE2
:10005000186EFF0E196EA9EC82F016501710D8A476
:1000600034EF80F036EF80F023EF80F0C20E1A6E8E
:10007000050E1B6E1BEC88F0700E0E6E070E4BEC1F
:1000800088F0DDEC88F00009D8B449EF80F04BEF40
:1000900080F09FEF80F0D9EC88F00501C06FDBECB9
:1000A00088F00501C16FC029D8B459EF80F05BEF2B
:1000B00080F09BEF80F0C129D8B461EF80F063EF4E
:1000C00080F09BEF80F021EEA0F11F0EDE6AE806C3
:1000D000FDE2A00E0C6E050E0D6EE80E0E6EFF0E0C
:1000E0000F6E000E116E080E106E85EC84F0C0C508
:1000F000A8F5C1C5A9F5C20E196E050E1A6EA00E9F
:100100001B6E050E1C6EA5EC83F08DEF80F0000ECB
:100110000D6E010E0C6E31EC87F0C20E196E050EDD
:100120001A6EEAEC85F00009D8A499EF80F09BEFF5
:1001300080F087EF80F0C1EC88F0CDEC88F005010D
:10014000FE51D8B4A6EF80F0A8EF80F0D2EF80F097
:10015000FE6B21EEC5F111EE60F11F0EDBC4E3F47E
:10016000E806FCE2C20E196E050E1A6E600E1B6EDA
:10017000050E1C6EA5EC83F0C4EF80F0000E0D6E32
:10018000010E0C6E31EC87F0C20E196E050E1A6E60
:10019000EAEC85F00009D8A4D0EF80F0D2EF80F02F
:1001A000BEEF80F00501FD51D8B4D9EF80F0DBEF50
:1001B00080F0F9EF80F0C20E196E050E1A6EE5ECB4
:1001C00087F00009D8B4E7EF80F0E9EF80F0F9EFAD
:1001D00080F021EE80F11F0EDE6AE806FDE2C20E1D
:1001E000126E050E136E800E146E050E156EFFEC6A
:1001F00086F0000E0D6E010E0C6E31EC87F041EFB3
:1002000080F0120074EF81F04B503EEC85F04A6AAA
:10021000010E476E91EF81F04A2A010E4A6413EFF6
:1002200081F015EF81F091EF81F0020E476E91EFB2
:1002300081F0096A0950FFEC82F00009D8B423EF7D
:1002400081F025EF81F02EEF81F04BC54EF509C509
:100250004DF5496A030E476E91EF81F0092A040EAD
:10026000096435EF81F037EF81F01AEF81F0010E6C
:100270004B24016E026A000E0222000E046E050E6F
:10028000036E52EC82F001504B6E476A91EF81F0A1
:100290004D50FFEC82F00009D8B451EF81F053EFDC
:1002A00081F06DEF81F04850D8A459EF81F05BEFF9
:1002B00081F091EF81F0492A020E496462EF81F0EA
:1002C00064EF81F091EF81F0010E4C6E010E486EEB
:1002D000476AD6EC88F091EF81F04E684D68496A24
:1002E000486A476A91EF81F04750076E086A0850E4
:1002F000000AD8B47EEF81F091EF81F00750000A38
:10030000D8B404EF81F0010AD8B40CEF81F0030AED
:10031000D8B419EF81F0010AD8B448EF81F091EF19
:1003200081F012000C6E000184BF99EF81F09BEF09
:1003300081F0F6EF81F00C50050D8B0EF324F66E74
:10034000FE0EF420F76EF86A000EF8220800F5C4DD
:1003500084F00C50050D010EF326000EF4228B0ED6
:10036000F324F66EFE0EF420F76EF86A000EF82203
:100370000800F5C485F00C50050D020EF326000EA2
:10038000F4228B0EF324F66EFE0EF420F76EF86A5C
:10039000000EF8220800F550FC0B866F0C50050D7E
:1003A000030EF326000EF4228B0EF324F66EFE0EDF
:1003B000F420F76EF86A000EF8220800F5C489F000
:1003C0000C50050D040EF326000EF4228B0EF324C0
:1003D000F66EFE0EF420F76EF86A000EF8220800A2
:1003E000F5C48CF0C896848FF6EF81F01200BE6AD7
:1003F000BF6AC06AC16AC26AC36A0401026B0A6B3F
:10040000126B1A6B226B2A6BC668F70EC76E8F0EC3
:10041000C86EC9680F0ECA6E0F0ECB6E0069F70E5C
:10042000086F010E106F0F0E186F070E206F0F0E62
:10043000286F016B096B116B196B216B296B0369B9
:100440000B6913691B69070E236F2B6904690C691B
:1004500014691C690F0E246F2C690201896B886B6B
:10046000876B866B120E6B6F320E156F130E6A6FF1
:10047000310E146F0401056B066B076B0D6B0E6B71
:100480000F6B156B020E166F176B256B266B276BA8
:10049000C60E0C6E110E0D6E010E0E6E9FEC88F0E6
:1004A0009E8E1200066A02BE5AEF82F058EF82F06A
:1004B00060EF82F0016C021ED8B0022A010E066EB7
:1004C00004BE67EF82F065EF82F06BEF82F0036CA1
:1004D000041ED8B0042A03500410D8B472EF82F07E
:1004E00074EF82F098EF82F0010E056E7CEF82F0DF
:1004F000D89003360436052A04AE81EF82F083EFEC
:1005000082F078EF82F00350015C04500258D8A0CA
:100510008CEF82F08EEF82F092EF82F00350015E5A
:100520000450025AD89004320332052E83EF82F031
:100530000650D8B49EEF82F0A0EF82F0A4EF82F0D4
:10054000016C021ED8B0022A01C501F502C502F5F0
:100550001200000E236E000E226E18C512F519C58A
:1005600013F5050E146E0A0EE6EC86F018C512F5AA
:1005700019C513F5050E146E100EE6EC86F01D0E6F
:10058000126E050E136E050E146E0A0E49EC87F0FE
:10059000000E256E000E246E1D0E2424D96E050E4D
:1005A0002520DA6E245018241B6E255019201C6E4D
:1005B0001BC5F6F41CC5F7F4000EF86EDE500900FA
:1005C000F518D8B4E6EF82F0E8EF82F0EAEF82F0B7
:1005D00022682368244A252A25BEF8EF82F0255098
:1005E00009E1050E245CD8A0F8EF82F0FAEF82F062
:1005F000CCEF82F022C516F523C517F51200016E67
:100600003CEF83F0D0AE07EF83F00AEF83F0010EEA
:100610000BEF83F0000E53EF83F0D1A812EF83F0BD
:1006200015EF83F0010E16EF83F0000E53EF83F009
:10063000D1AA1DEF83F020EF83F0010E21EF83F0AC
:10064000000E53EF83F0D1AC28EF83F02BEF83F053
:10065000010E2CEF83F0000E53EF83F0D1AE33EF99
:1006600083F036EF83F0010E37EF83F0000E53EF87
:1006700083F0000E53EF83F00150000AD8B402EF6C
:1006800083F0010AD8B40DEF83F0030AD8B418EF51
:1006900083F0010AD8B423EF83F0070AD8B42EEF11
:1006A00083F039EF83F01200FAC40AF5FBC40BF5AE
:1006B000A1AE5DEF83F05FEF83F06AEF83F0B1AE40
:1006C00064EF83F066EF83F06AEF83F078EC86F0F6
:1006D000A0EF83F09EAE6FEF83F071EF83F07CEFBD
:1006E00083F0AEAE76EF83F078EF83F07CEF83F0AB
:1006F0006EEC88F0A0EF83F0A1A681EF83F083EF8A
:1007000083F08EEF83F0B1A688EF83F08AEF83F059
:100710008EEF83F018EC87F0A0EF83F0A1A893EFA1
:1007200083F095EF83F0A0EF83F0B1A89AEF83F008
:100730009CEF83F0A0EF83F059EC86F0A0EF83F0FC
:100740000BC5FBF40AC5FAF4110019C516F51AC554
:1007500017F563EC88F0C6EF83F019C516F51AC5D6
:1007600017F563EC88F01E6E1EC51DF5300E1D16C4
:10077000D8B4BDEF83F0BFEF83F0C6EF83F019C5A7
:10078000D9F41AC5DAF4DF6AD2EF83F019C5D9F4C7
:100790001AC5DAF4DF50D8A4D0EF83F0D2EF83F09B
:1007A000ADEF83F0C09A19C510F51AC511F50AEC22
:1007B00088F0C09CE10EA5EC87F0C08CC09CA00E18
:1007C000A5EC87F01BC50EF51CC50FF520EE02F059
:1007D0001950D9261A50DA22DF50106E6DEC85F0D0
:1007E000C08CC08A1200000E236E000E226E18C547
:1007F00012F519C513F5050E146E0B0EE6EC86F016
:100800001D0E126E050E136E050E146E0B0E49ECC6
:1008100087F0000E256E000E246E1D0E2424D96E66
:10082000050E2520DA6E245018241B6E2550192041
:100830001C6E1BC5F6F41CC5F7F4000EF86EDE50F6
:100840000900F518D8B427EF84F029EF84F02BEFD6
:1008500084F022682368244A252A25BE39EF84F0D3
:10086000255009E1050E245CD8A039EF84F03BEF58
:1008700084F00DEF84F022C516F523C517F512009C
:10088000580EF66E100EF76E010EF86E01EE40F285
:1008900010EE20F00900F5C4EEF4E550E150FAE165
:1008A0002C0EF66E0D0EF76E010EF86E01EEC5F110
:1008B00010EE38F00900F5C4EEF4E550E150FAE12D
:1008C000BE0EF66E110EF76E010EF86E0900F5C43D
:1008D0004DF50900F5C44EF501EE00F2400EEE6A4A
:1008E000E806FDE10501FE6BFD6B01EE40F10D0E2A
:1008F000EE6AE806FDE10401080E5D6F000E5E6F12
:10090000000E5F6F000198EF85F00CC512F50DC564
:1009100013F5A9EF84F01006D8A011060EC5F6F461
:100920000FC5F7F40E4A0F2A000EF86E12C5D9F45F
:1009300013C5DAF4124A132A0800F5C4DFF4DF50B5
:10094000D8A4A5EF84F0A7EF84F0A9EF84F0BBEF63
:1009500084F010501110D8A4B0EF84F0B2EF84F0FE
:100960008BEF84F0BBEF84F012C5D9F413C5DAF431
:10097000DF6A124A132A1006D8A01106102806E1D1
:100980001128D8A4C6EF84F0C8EF84F0B4EF84F047
:10099000120020EE01F01950D9261A50DA221BC598
:1009A000DFF420EE02F01950D9261A50DA221CC5C5
:1009B000DFF419C516F51AC517F563EC88F01BC5E9
:1009C0000EF5050E4BEC88F020EE02F01950D926FA
:1009D0001A50DA22DF500E6E110E4BEC88F020EE2A
:1009E00002F01950D9261A50DA22DF500E6E120E7C
:1009F0004BEC88F019C510F51AC511F5F8EC87F025
:100A000019C50EF51AC50FF5BBEC88F01200020EE1
:100A100018640DEF85F00FEF85F011EF85F03DEFD5
:100A200085F0190E126E050E136E010E146E060E71
:100A300049EC87F0020E1818D8A421EF85F023EFB7
:100A400085F030EF85F019502009196E1950F70B19
:100A5000196E19C50EF5060E4BEC88F03DEF85F0CA
:100A60001950D70B196E1838E842F80B1910196E87
:100A700019C50EF5060E4BEC88F01200016EC38E00
:100A8000C38CC38AC388BF8655EF85F0C39E6CEFC5
:100A900085F0C39C6CEF85F0C39A6CEF85F0C3982A
:100AA0006CEF85F0BF966CEF85F00150000AD8B46A
:100AB00046EF85F0010AD8B449EF85F0030AD8B4AF
:100AC0004CEF85F0010AD8B44FEF85F0070AD8B48F
:100AD00052EF85F06CEF85F01200C09C116A8DEF2B
:100AE00085F00EC5F6F40FC5F7F4000EF86E250E6E
:100AF000F76403D00800F55005D0F6C4E9F4F7C454
:100B0000EAF4EF50A5EC87F00E4A0F2A000E0D6EA6
:100B10000A0E0C6EC1EC85F0112A1050115CD8A0A1
:100B200094EF85F096EF85F071EF85F0C08C1200A0
:100B30003CEC88F0D68E8A0E0C6E110E0D6E010EF6
:100B40000E6E83EC88F0040E0C6E020E0D6E010E1C
:100B50000E6E8AEC88F0920E0C6E110E0D6E010E68
:100B60000E6E9FEC88F0D0EC88F0CDEC88F0D3ECE2
:100B700088F0000E266E000E276E00EC80F00DEF60
:100B800000F0CBEF85F0AA0EE82EFED700D0200EA5
:100B90000C5E000E0D5A0D5007E1200E0C5CD8B013
:100BA000D4EF85F0D6EF85F0C3EF85F0DCEF85F06C
:100BB000050EE82EFED700000C06D8A00D060C2866
:100BC00006E10D28D8A4E7EF85F0E9EF85F0D8EF2E
:100BD00085F0120019C5D9F41AC5DAF4DF50D8B47B
:100BE000F4EF85F0F6EF85F00EEF86F019C516F5F7
:100BF0001AC517F563EC88F01C6E1CC51BF5300E8A
:100C00001B16D8B406EF86F008EF86F011EF86F0D9
:100C100019C510F51AC511F5F8EC87F0000E12EFA2
:100C200086F0010E120003011E911F6B206B030E54
:100C3000216FE00E1D6FBF0E1C6F1D510F6E1C51FA
:100C4000436E0FC544F5C00E0C6E110E0D6E010EF5
:100C50000E6E91EC88F0000E0C6E000E0D6E000E04
:100C60000E6E98EC88F0B198A188370E03011E6FC4
:100C70001200D69AAF90D680000E0C6E000E0D6E4C
:100C8000000E0E6EB4EC88F0B490D682000E0C6E9E
:100C9000000E0D6E000E0E6EADEC88F0B890D6848E
:100CA000000E0C6E000E0D6E000E0E6EA6EC88F09F
:100CB0001200B19843C501F544C502F5D0EC87F0A8
:100CC0002E502F103010D8B468EF86F06AEF86F0FF
:100CD00077EF86F002D877EF86F00500FA6E2E5097
:100CE000FD6E2F50FE6E3050FF6EFA501200120053
:100CF00046500301196F45C518F3315032103310B7
:100D0000D8B485EF86F087EF86F094EF86F002D8AE
:100D100094EF86F00500FA6E3150FD6E3250FE6E93
:100D20003350FF6EFA501200B19E120050494E47E8
:100D300000000000000000000000000000000000B3
:100D4000000000000000000000000000314D627053
:100D500073000000324D6270730000003235304B7A
:100D600062707300C09C116AC1EF86F0FF0EA5ECA3
:100D700087F00EC5D9F40FC5DAF4DF6E0E4A0F2ADC
:100D8000112A1050115CD8A0C8EF86F0CAEF86F087
:100D9000B6EF86F0C08C1200345035103610D8B43F
:100DA000D4EF86F0D6EF86F0E3EF86F002D8E3EFDB
:100DB00086F00500FA6E3450FD6E3550FE6E3650EA
:100DC000FF6EFA501200040117931200156E1450B2
:100DD000D8B4EDEF86F0EFEF86F0FEEF86F0C09C22
:100DE00015501F0B2009A5EC87F012C50EF513C591
:100DF0000FF514C510F56DEC85F0C08C1200C09C89
:100E0000610EA5EC87F014C50EF515C50FF520EEA3
:100E100002F01250D9261350DA22DF50106EB2ECD5
:100E200086F0C08C400E0E6E070E4BEC88F0120060
:100E3000B196285029102A10D8B421EF87F023EF5B
:100E400087F030EF87F002D830EF87F00500FA6EB8
:100E50002850FD6E2950FE6E2A50FF6EFA50120087
:100E600012003BEF87F0150E0E6EC60EE82EFED771
:100E70000E2EFCD700D00C06D8A00D060C2806E1DB
:100E80000D28D8A446EF87F048EF87F033EF87F0BE
:100E90001200156E1450D8B450EF87F052EF87F05F
:100EA00060EF87F0C09C15501F0BA5EC87F012C5B2
:100EB0000EF513C50FF514C510F5B2EC86F0C08C15
:100EC00012000B0E0301196FDC0E186F790E1B6FE9
:100ED00019510C6E1851456E0CC546F5C40E316E95
:100EE000110E326E010E336EB19EA18E900E1A6FEE
:100EF0001200000E92EC81F020EE01F00D50D92688
:100F00000E50DA22730EDF6E20EE02F00D50D9265D
:100F10000E50DA22200EDF6EC89CC89A1200190EFD
:100F2000126E050E136E010E146E040E49EC87F05E
:100F300019500F0B196E1838F00B1910196E19C5CE
:100F40000EF5040E4BEC88F012000C6E0001878544
:100F500086510309866F836B010E826F0CC581F089
:100F6000B1A0B5EF87F0B7EF87F0B0EF87F080C0A2
:100F70000DF50D501200030E0301266F256B276B34
:100F80001F0E236F226BC20E0C6E110E0D6E010E22
:100F90000E6E8AEC88F0B196A186030124691200D6
:100FA00003011EA5D6EF87F0D8EF87F0E0EF87F0BA
:100FB0001E9102501D6F01C51CF31E81E4EF87F0E6
:100FC00002501D6F01C51CF3120019C516F51AC594
:100FD00017F563EC88F01B6E1BACF1EF87F0F3EFB5
:100FE00087F0F6EF87F0010EF7EF87F0000E1200A2
:100FF00010C5D9F411C5DAF4DF6AC09A2B0E0E6E53
:10100000000E4BEC88F0C08A300E0E6E070E4BECD3
:1010100088F0120010C5D9F411C5DAF4010EDF6EA4
:101020002A0E0E6E000E4BEC88F0300E0E6E070E80
:101030004BEC88F012001AC516F51BC517F5000E0B
:10104000186E07EC85F01AC516F51BC517F5640E6A
:10105000186E8FEC87F0120050415F4D494E000032
:1010600050415F4C4F57000050415F48494748008E
:1010700050415F4D4158000079EC88F0F7EC81F069
:1010800061EC87F057EC88F013EC86F0BBEC87F04E
:1010900039EC86F012000F6EC09C0F501F0B200918
:1010A000A5EC87F00E50A5EC87F0C08C1200A1943F
:1010B000A192A1900001846B040E856F866B896BF1
:1010C0008C6B87851200180E126E050E136E010EC2
:1010D000146E070E49EC87F018501200040117A394
:1010E00074EF88F076EF88F078EF88F0CCEC86F03B
:1010F0001200600E0001AD6FAF6BB36B080EB16FE5
:10110000B06BAC6B12000CC531F50DC532F50EC5D8
:1011100033F512000CC528F50DC529F50EC52AF5C5
:1011200012000CC52EF50DC52FF50EC530F51200B9
:101130000CC52BF50DC52CF50EC52DF512000CC5F3
:1011400034F50DC535F50EC536F512000CC537F56D
:101150000DC538F50EC539F512000CC53AF50DC5AB
:101160003BF50EC53CF512000CC53DF50DC53EF531
:101170000EC53FF51200C09CE20EA5EC87F0C08CB6
:1011800012004C6A4E684D681200010E0501FE6F98
:101190001200010E0501FD6F12000301248F1200E1
:1011A00003011E91120003011A9F12000301249FE4
:1011B00012004E5012004D5012004C501200FFFF12
:0811C0001200120012001200DF
:020000040030CA
:080000008FFFF7FF9FFFFFFFD8
:01000900FFF7
:00000001FF
