:040000000DEF00F010
:040008003CEF83F056
:06001800FF00AAEF84F0D6
:10FE3C0000441001000000F402010000000000006A
:10FE4C00000000000000000F010000000000000096
:10FE5C0000000000000000000000002C0F01341115
:10FE6C00014C1101000000AA1001000000DC0B0184
:10FE7C00000000401101000000B810010000000259
:10FE8C00C000FF0002C000FF0002400000004469F7
:10FE9C007361626C656400003820626974730000E1
:10FEAC0000003136206269747300000053544154D1
:10FEBC0055530909203D203078253032782052588E
:10FECC005F44523D25782054585F44533D2578209B
:10FEDC004D41585F52543D25782052585F505F4E2B
:10FEEC004F3D25782054585F46554C4C3D25780D98
:10FEFC000A003D3D3D3D3D3D3D3D3D3D3D3D3D3D96
:10FF0C003D3D204E524620436F6E666967757261A7
:10FF1C0074696F6E203D3D3D3D3D3D3D3D3D3D3D5C
:10FF2C003D3D3D3D3D0A0052657472616E736D69D5
:10FF3C007409203D2025642075730A004352432028
:10FF4C004C656E67746809203D2025730A00446176
:10FF5C007461205261746509203D2025730A00509C
:10FF6C004120506F77657209203D2025730A0044AB
:10FF7C00594E50442F464541545552450052585FF6
:10FF8C00414444525F50302D310052585F4144443B
:10FF9C00525F50322D350052585F50575F50302D04
:10FFAC003600454E5F5258414444520054585F410C
:10FFBC00444452090052465F534554555000434F38
:10FFCC004E46494709002030782530327800454E9E
:10FFDC005F4141090052465F434809004255545461
:10FFEC004F4E00257309203D0032524543560020E8
:04FFFC003078000059
:020000040001F9
:10000000A20E0D6E050E0E6E54EC87F0A20E196E48
:10001000050E1A6E700E1B6E200E1C6E6CEC84F0BA
:10002000A20E166E050E176EF50E186EFF0E196EE7
:10003000DBEC83F016501710D8A421EF80F023EFEB
:1000400080F010EF80F0A20E166E050E176EF50E02
:10005000186EFF0E196E91EC82F016501710D8A48E
:1000600034EF80F036EF80F023EF80F0A20E1A6EAE
:10007000050E1B6EF6EC87F0700E0E6E070E16EC7A
:1000800088F0010E0501FE6FB0EC88F00009D8B4CD
:100090004CEF80F04EEF80F0BAEF80F00501FE519A
:1000A000D8A455EF80F057EF80F062EF80F0300E6B
:1000B0000E6E070E16EC88F092EC88F09AEC88F041
:1000C00044EF80F0ACEC88F00501A06FAEEC88F056
:1000D0000501A16FA029D8B470EF80F072EF80F015
:1000E000B2EF80F0A129D8B478EF80F07AEF80F0F9
:1000F000B2EF80F021EE80F11F0EDE6AE806FDE22D
:10010000800E0C6E050E0D6EE80E0E6EFF0E0F6E5D
:10011000000E116E080E106E28EC84F0A0C588F554
:10012000A1C589F5A20E196E050E1A6E800E1B6E02
:10013000050E1C6E8DEC83F0A4EF80F0000E0D6EAA
:10014000010E0C6E0CEC87F0A20E196E050E1A6EE5
:10015000C5EC85F00009D8A4B0EF80F0B2EF80F0D4
:100160009EEF80F00501FE6B9DEC88F092EC88F02C
:100170009AEC88F00501FD51D8B4C1EF80F0C3EFCF
:1001800080F0E1EF80F0A20E196E050E1A6EC0EC41
:1001900087F00009D8B4CFEF80F0D1EF80F0E1EF25
:1001A00080F021EE60F11F0EDE6AE806FDE2A20E8D
:1001B000126E050E136E600E146E050E156EDAECDF
:1001C00086F0000E0D6E010E0C6E0CEC87F044EF05
:1001D00080F012005CEF81F04B5019EC85F04A6A18
:1001E000010E476E79EF81F04A2A010E4A64FBEF57
:1001F00080F0FDEF80F079EF81F0020E476E79EF2D
:1002000081F0096A0950E7EC82F00009D8B40BEFDD
:1002100081F00DEF81F016EF81F04BC54EF509C569
:100220004DF5496A030E476E79EF81F0092A040EF5
:1002300009641DEF81F01FEF81F002EF81F0010EE4
:100240004B24016E026A000E0222000E046E050E9F
:10025000036E3AEC82F001504B6E476A79EF81F001
:100260004D50E7EC82F00009D8B439EF81F03BEF54
:1002700081F055EF81F04850D8A441EF81F043EF71
:1002800081F079EF81F0492A020E49644AEF81F04A
:100290004CEF81F079EF81F0010E4C6E010E486E4B
:1002A000476AA6EC88F079EF81F04E684D68496A9C
:1002B000486A476A79EF81F04750076E086A08502C
:1002C000000AD8B466EF81F079EF81F00750000A98
:1002D000D8B4ECEF80F0010AD8B4F4EF80F0030A50
:1002E000D8B401EF81F0010AD8B430EF81F079EF92
:1002F00081F012000C6E000184BF81EF81F083EF6A
:1003000081F0DEEF81F00C50050D8B0EF324F66EBC
:10031000FE0EF420F76EF86A000EF8220800F5C40D
:1003200084F00C50050D010EF326000EF4228B0E06
:10033000F324F66EFE0EF420F76EF86A000EF82233
:100340000800F5C485F00C50050D020EF326000ED2
:10035000F4228B0EF324F66EFE0EF420F76EF86A8C
:10036000000EF8220800F550FC0B866F0C50050DAE
:10037000030EF326000EF4228B0EF324F66EFE0E0F
:10038000F420F76EF86A000EF8220800F5C489F030
:100390000C50050D040EF326000EF4228B0EF324F0
:1003A000F66EFE0EF420F76EF86A000EF8220800D2
:1003B000F5C48CF0C896848FDEEF81F01200BE6A1F
:1003C000BF6AC06AC16AC26AC36A0401026B0A6B6F
:1003D000126B1A6B226B2A6BC668F70EC76E8F0EF4
:1003E000C86EC9680F0ECA6E0F0ECB6E0069F70E8D
:1003F000086F010E106F0F0E186F070E206F0F0E93
:10040000286F016B096B116B196B216B296B0369E9
:100410000B6913691B69070E236F2B6904690C694B
:1004200014691C690F0E246F2C690201896B886B9B
:10043000876B866B120E6B6F320E156F130E6A6F21
:10044000310E146F0401056B066B076B0D6B0E6BA1
:100450000F6B156B020E166F176B256B266B276BD8
:100460006C0E0C6E110E0D6E010E0E6E6AEC88F0A5
:100470009E8E1200066A02BE42EF82F040EF82F0CA
:1004800048EF82F0016C021ED8B0022A010E066EFF
:1004900004BE4FEF82F04DEF82F053EF82F0036C19
:1004A000041ED8B0042A03500410D8B45AEF82F0C6
:1004B0005CEF82F080EF82F0010E056E64EF82F057
:1004C000D89003360436052A04AE69EF82F06BEF4C
:1004D00082F060EF82F00350015C04500258D8A013
:1004E00074EF82F076EF82F07AEF82F00350015ED3
:1004F0000450025AD89004320332052E6BEF82F07A
:100500000650D8B486EF82F088EF82F08CEF82F04C
:10051000016C021ED8B0022A01C501F502C502F520
:100520001200000E236E000E226E18C512F519C5BA
:1005300013F5050E146E0A0EC1EC86F018C512F5FF
:1005400019C513F5050E146E100EC1EC86F01D0EC4
:10055000126E050E136E050E146E0A0E24EC87F053
:10056000000E256E000E246E1D0E2424D96E050E7D
:100570002520DA6E245018241B6E255019201C6E7D
:100580001BC5F6F41CC5F7F4000EF86EDE5009002A
:10059000F518D8B4CEEF82F0D0EF82F0D2EF82F02F
:1005A00022682368244A252A25BEE0EF82F02550E0
:1005B00009E1050E245CD8A0E0EF82F0E2EF82F0C2
:1005C000B4EF82F022C516F523C517F51200016EAF
:1005D00024EF83F0D0AEEFEF82F0F2EF82F0010E65
:1005E000F3EF82F0000E3BEF83F0D1A8FAEF82F038
:1005F000FDEF82F0010EFEEF82F0000E3BEF83F084
:10060000D1AA05EF83F008EF83F0010E09EF83F024
:10061000000E3BEF83F0D1AC10EF83F013EF83F0CB
:10062000010E14EF83F0000E3BEF83F0D1AE1BEF11
:1006300083F01EEF83F0010E1FEF83F0000E3BEFFF
:1006400083F0000E3BEF83F00150000AD8B4EAEFCC
:1006500082F0010AD8B4F5EF82F0030AD8B400EFB3
:1006600083F0010AD8B40BEF83F0070AD8B416EF71
:1006700083F021EF83F01200FAC40AF5FBC40BF5F6
:100680009EAE45EF83F047EF83F052EF83F0AEAEBE
:100690004CEF83F04EEF83F052EF83F039EC88F0AB
:1006A00088EF83F0A1AE57EF83F059EF83F064EF4A
:1006B00083F0B1AE5EEF83F060EF83F064EF83F020
:1006C00053EC86F088EF83F0A1A669EF83F06BEF1F
:1006D00083F076EF83F0B1A670EF83F072EF83F0D2
:1006E00076EF83F0F3EC86F088EF83F0A1A87BEF40
:1006F00083F07DEF83F088EF83F0B1A882EF83F081
:1007000084EF83F088EF83F034EC86F088EF83F099
:100710000BC5FBF40AC5FAF4110019C516F51AC584
:1007200017F52EEC88F0AEEF83F019C516F51AC553
:1007300017F52EEC88F01E6E1EC51DF5300E1D1629
:10074000D8B4A5EF83F0A7EF83F0AEEF83F019C51F
:10075000D9F41AC5DAF4DF6ABAEF83F019C5D9F40F
:100760001AC5DAF4DF50D8A4B8EF83F0BAEF83F0FB
:1007700095EF83F0C09A19C510F51AC511F5E5EC8F
:1007800087F0C09CE10E80EC87F0C08CC09CA00E6E
:1007900080EC87F01BC50EF51CC50FF520EE02F0AE
:1007A0001950D9261A50DA22DF50106E48EC85F025
:1007B000C08CC08A1200000E236E000E226E18C577
:1007C00012F519C513F5050E146E0B0EC1EC86F06B
:1007D0001D0E126E050E136E050E146E0B0E24EC1C
:1007E00087F0000E256E000E246E1D0E2424D96E97
:1007F000050E2520DA6E245018241B6E2550192072
:100800001C6E1BC5F6F41CC5F7F4000EF86EDE5026
:100810000900F518D8B40FEF84F011EF84F013EF4E
:1008200084F022682368244A252A25BE21EF84F01B
:10083000255009E1050E245CD8A021EF84F023EFB8
:1008400084F0F5EF83F022C516F523C517F51200E5
:100850000CC512F50DC513F54CEF84F01006D8A0A9
:1008600011060EC5F6F40FC5F7F40E4A0F2A000E56
:10087000F86E12C5D9F413C5DAF4124A132A080027
:10088000F5C4DFF4DF50D8A448EF84F04AEF84F0D9
:100890004CEF84F05EEF84F010501110D8A453EFA9
:1008A00084F055EF84F02EEF84F05EEF84F012C5F3
:1008B000D9F413C5DAF4DF6A124A132A1006D8A055
:1008C0001106102806E11128D8A469EF84F06BEF17
:1008D00084F057EF84F0120020EE01F01950D92671
:1008E0001A50DA221BC5DFF420EE02F01950D92687
:1008F0001A50DA221CC5DFF419C516F51AC517F50A
:100900002EEC88F01BC50EF5050E16EC88F020EED7
:1009100002F01950D9261A50DA22DF500E6E110E4D
:1009200016EC88F020EE02F01950D9261A50DA227F
:10093000DF500E6E120E16EC88F019C510F51AC5B0
:1009400011F5D3EC87F019C50EF51AC50FF586EC35
:1009500088F01200E20EF66E0C0EF76E010EF86EC5
:1009600001EEA5F110EE38F00900F5C4EEF4E55003
:10097000E150FAE1640EF66E110EF76E010EF86E9C
:100980000900F5C44DF50900F5C44EF501EE00F27D
:10099000200EEE6AE806FDE101EEDDF1220EEE6AC0
:1009A000E806FDE101EE40F10D0EEE6AE806FDE11C
:1009B0000401080E5D6F000E5E6F000E5F6F000198
:1009C00073EF85F0020E1864E8EF84F0EAEF84F02C
:1009D000ECEF84F018EF85F0190E126E050E136E11
:1009E000010E146E060E24EC87F0020E1818D8A41F
:1009F000FCEF84F0FEEF84F00BEF85F01950200936
:100A0000196E1950F70B196E19C50EF5060E16EC76
:100A100088F018EF85F01950D70B196E1838E84296
:100A2000F80B1910196E19C50EF5060E16EC88F0A4
:100A30001200016EC38EC38CC38AC388BF8630EF99
:100A400085F0C39E47EF85F0C39C47EF85F0C39ABE
:100A500047EF85F0C39847EF85F0BF9647EF85F0E5
:100A60000150000AD8B421EF85F0010AD8B424EF70
:100A700085F0030AD8B427EF85F0010AD8B42AEF2D
:100A800085F0070AD8B42DEF85F047EF85F0120006
:100A9000C09C116A68EF85F00EC5F6F40FC5F7F437
:100AA000000EF86E250EF76403D00800F55005D04F
:100AB000F6C4E9F4F7C4EAF4EF5080EC87F00E4A8C
:100AC0000F2A000E0D6E0A0E0C6E9CEC85F0112A9A
:100AD0001050115CD8A06FEF85F071EF85F04CEFEE
:100AE00085F0C08C120007EC88F0D68E180E0C6EC4
:100AF000110E0D6E010E0E6E4EEC88F0D40E0C6EC3
:100B0000010E0D6E010E0E6E55EC88F02C0E0C6E63
:100B1000110E0D6E010E0E6E6AEC88F0A0EC88F0DE
:100B20009AEC88F0A3EC88F0000E266E000E276E7B
:100B300000EC80F00DEF00F0A6EF85F0AA0EE82E95
:100B4000FED700D0200E0C5E000E0D5A0D5007E1AE
:100B5000200E0C5CD8B0AFEF85F0B1EF85F09EEFC2
:100B600085F0B7EF85F0050EE82EFED700000C06E5
:100B7000D8A00D060C2806E10D28D8A4C2EF85F0F8
:100B8000C4EF85F0B3EF85F0120019C5D9F41AC58A
:100B9000DAF4DF50D8B4CFEF85F0D1EF85F0E9EF8C
:100BA00085F019C516F51AC517F52EEC88F01C6EE0
:100BB0001CC51BF5300E1B16D8B4E1EF85F0E3EF32
:100BC00085F0ECEF85F019C510F51AC511F5D3ECD9
:100BD00087F0000EEDEF85F0010E120003011E916B
:100BE0001F6B206B030E216FE00E1D6FBF0E1C6F7D
:100BF0001D510F6E1C51436E0FC544F5660E0C6EF1
:100C0000110E0D6E010E0E6E5CEC88F0000E0C6E77
:100C1000000E0D6E000E0E6E63EC88F0B198A18888
:100C2000370E03011E6F1200D69AAF90D680000EC9
:100C30000C6E000E0D6E000E0E6E7FEC88F0B49000
:100C4000D682000E0C6E000E0D6E000E0E6E78EC4D
:100C500088F0B890D684000E0C6E000E0D6E000E5B
:100C60000E6E71EC88F01200B19843C501F544C5D1
:100C700002F5ABEC87F02E502F103010D8B443EFB4
:100C800086F045EF86F052EF86F002D852EF86F0FC
:100C90000500FA6E2E50FD6E2F50FE6E3050FF6E26
:100CA000FA501200120046500301196F45C518F39F
:100CB000315032103310D8B460EF86F062EF86F016
:100CC0006FEF86F002D86FEF86F00500FA6E3150B4
:100CD000FD6E3250FE6E3350FF6EFA501200B19E20
:100CE000120050415F4D494E000050415F4C4F573C
:100CF000000050415F484947480050415F4D41580E
:100D00000000314D627073000000324D627073005C
:100D100000003235304B62707300C09C116A9CEF4A
:100D200086F0FF0E80EC87F00EC5D9F40FC5DAF41B
:100D3000DF6E0E4A0F2A112A1050115CD8A0A3EFC3
:100D400086F0A5EF86F091EF86F0C08C120034504B
:100D500035103610D8B4AFEF86F0B1EF86F0BEEFA5
:100D600086F002D8BEEF86F00500FA6E3450FD6EB4
:100D70003550FE6E3650FF6EFA5012000401179384
:100D80001200156E1450D8B4C8EF86F0CAEF86F082
:100D9000D9EF86F0C09C15501F0B200980EC87F01E
:100DA00012C50EF513C50FF514C510F548EC85F006
:100DB000C08C1200C09C610E80EC87F014C50EF54B
:100DC00015C50FF520EE02F01250D9261350DA2285
:100DD000DF50106E8DEC86F0C08C400E0E6E070E4C
:100DE00016EC88F01200B196285029102A10D8B4B9
:100DF000FCEF86F0FEEF86F00BEF87F002D80BEFEA
:100E000087F00500FA6E2850FD6E2950FE6E2A50BC
:100E1000FF6EFA501200120016EF87F0150E0E6EDC
:100E2000C60EE82EFED70E2EFCD700D00C06D8A09A
:100E30000D060C2806E10D28D8A421EF87F023EF3A
:100E400087F00EEF87F01200156E1450D8B42BEF18
:100E500087F02DEF87F03BEF87F0C09C15501F0BFC
:100E600080EC87F012C50EF513C50FF514C510F50B
:100E70008DEC86F0C08C12000B0E0301196FDC0E96
:100E8000186F7A0E1B6F19510C6E1851456E0CC5F8
:100E900046F56A0E316E110E326E010E336EB19E42
:100EA000A18E900E1A6F1200000E7AEC81F020EEE7
:100EB00001F00D50D9260E50DA22730EDF6E20EEAF
:100EC00002F00D50D9260E50DA22200EDF6EC89C9B
:100ED000C89A1200190E126E050E136E010E146ED2
:100EE000040E24EC87F019500F0B196E1838F00B14
:100EF0001910196E19C50EF5040E16EC88F01200C3
:100F00000C6E0001878586510309866F836B010E85
:100F1000826F0CC581F0B1A090EF87F092EF87F05F
:100F20008BEF87F080C00DF50D501200030E03010A
:100F3000266F256B276B9C0E236F226B680E0C6E41
:100F4000110E0D6E010E0E6E55EC88F0B196A18655
:100F500003012469120003011EA5B1EF87F0B3EF6E
:100F600087F0BBEF87F01E9102501D6F01C51CF387
:100F70001E81BFEF87F002501D6F01C51CF31200E8
:100F800019C516F51AC517F52EEC88F01B6E1BACAB
:100F9000CCEF87F0CEEF87F0D1EF87F0010ED2EFE4
:100FA00087F0000E120010C5D9F411C5DAF4DF6A1B
:100FB000C09A2B0E0E6E000E16EC88F0C08A300E12
:100FC0000E6E070E16EC88F0120010C5D9F411C58C
:100FD000DAF4010EDF6E2A0E0E6E000E16EC88F0AB
:100FE000300E0E6E070E16EC88F012001AC516F5BC
:100FF0001BC517F5000E186EE2EC84F01AC516F545
:101000001BC517F5640E186E6AEC87F0120044ECED
:1010100088F0DFEC81F03CEC87F022EC88F0EEEC1D
:1010200085F096EC87F014EC86F012000F6EC09CF1
:101030000F501F0B200980EC87F00E5080EC87F0DA
:10104000C08C1200A194A192A1900001846B040EA7
:10105000856F866B896B8C6B87851200180E126EFC
:10106000050E136E010E146E070E24EC87F0185057
:101070001200040117A33FEF88F041EF88F043EF1F
:1010800088F0A7EC86F01200600E0001AD6FAF6B28
:10109000B36B080EB16FB06BAC6B12000CC531F5C1
:1010A0000DC532F50EC533F512000CC528F50DC57A
:1010B00029F50EC52AF512000CC52EF50DC52FF524
:1010C0000EC530F512000CC52BF50DC52CF50EC55F
:1010D0002DF512000CC534F50DC535F50EC536F5E8
:1010E00012000CC537F50DC538F50EC539F51200DF
:1010F0000CC53AF50DC53BF50EC53CF512000CC507
:101100003DF50DC53EF50EC53FF51200C09CE20E43
:1011100080EC87F0C08C1200010E0501FE6FA9EC77
:1011200088F012004C6A4E684D681200010E0501ED
:10113000FD6F12000301248F120003011A8F1200A9
:1011400003011E91120003011A9F12000301249F44
:10115000120003011A9F12004E5012004D5012004F
:0E1160004C501200FFFF12001200120012008D
:020000040030CA
:080000008FFFF7FF9FFFFFFFD8
:01000900FFF7
:00000001FF
